:020000040000FA
:100000000A128A11E72F00308A000408840A820746
:1000100000343134323433344134343435343634CA
:10002000423437343834393443342A343034233486
:100030004434533465346E3468346134203443348A
:100040006F34723472346534743461342034203443
:1000500020340034533465346E34683461342034D1
:1000600049346E3463346F347234723465347434AA
:10007000613420340034433461346C346334753477
:100080006C34613464346F347234613400344F340E
:100090007034653472346134633461346F343A34AB
:1000A00020340034533465346E34683461343A3467
:0800B000203400342A3400342E
:10053A0067309F2A080083120313DA01080001308A
:10054A000A128A11B8240A128A110800F030831696
:10055A000313860083160317890183160313811375
:10056A00FF309500FF3083120313860008005434CD
:10057A00653463346C3461343A34203420342034A2
:10058A0020342034203420342034203420340034E1
:10059A00F5007508F40006300310F40DFF3E031D44
:1005AA00D12A730874077F39803E0A128A11B82447
:1005BA000A128A1108007E088A007F0882000A123D
:1005CA008A11E0220A128A118000840A04087D0630
:1005DA0003190034FF0A0319FE0AE42A022BC73062
:1005EA00F200F72AF20BF62AFA2AFB2A0130F00265
:1005FA000030031CF103F102022B70087104031D81
:10060A00072B082BF42A092B0800F401F5010D2BFE
:10061A00701C102B112B172B7208F4070318F50AFC
:10062A007308F50701300310F20DF30DFF3E031DA9
:10063A00182B01300310F10CF00CFF3E031D1F2B89
:10064A0070087104031D2A2B2B2B0D2B2C2B7508DC
:10065A00F1007408F000312B0800FA007608F8005F
:10066A007808F9007608F8007808F3007A080A1280
:10067A008A11CD220A128A11572B770884000A128E
:10068A008A1103200A128A110A128A1165230A1290
:10069A008A110130F8007808F7070130F800780865
:1006AA00F907572B770884000A128A1103200A12C5
:1006BA008A11003A031D622B632B422B642B08001C
:1006CA00F2008312031308157208F00004300310B5
:1006DA00F00CFF3E031D6C2B7008F1000430031070
:1006EA00F10DFF3E031D742B08080F3971048800B1
:1006FA0088110D30F000F00B802B8312031388153C
:10070A0008157208F00004300310F00DFF3E031DB7
:10071A00892B08080F397004880088110D30F00001
:10072A00F00B952B83120313881508006430F00030
:10073A000030F1000A128A11F3220A128A11831672
:10074A0003130811881108128812081388136430D9
:10075A00F0000030F1000A128A11F3220A128A11FB
:10076A0083120313881528300A128A11B8240A1230
:10077A008A110C300A128A11B8240A128A1101301D
:10078A000A128A11B8240A128A1102300A128A112C
:10079A00B8240A128A116430F0000030F1000A12FB
:1007AA008A11F3220A128A110800F701F8010430AB
:1007BA007802031CE12BE22BE42B442C442C01305D
:1007CA00F000780AEA2B0310F00DFF3E031DE82B18
:1007DA007008FF3A831203138600F9010430790284
:1007EA00031CF82BF92BFB2B392C392C0609F000AA
:1007FA00F101F109790AF2001030F3000030F40037
:10080A00092C0310F30DF40DF20B062C7008730576
:10081A00F50071087405F600750876040319162C9C
:10082A00172C2E2C7808F00002300310F00DFF3E32
:10083A00031D1A2C01307007F10079087107840032
:10084A000A128A1103200A128A11F2007208F700AA
:10085A002E2C0130F0007008F90704307902031CCD
:10086A00372C382CFB2B392C0130F0007008F80794
:10087A0004307802031C422C432CE42B442C7708C6
:10088A00462C0800F601F11F4B2C4C2C542CF00975
:10089A00F109F00A0319F10AF601F60A542CF31FBA
:1008AA00572C582C622CF209F309F20A0319F30A9D
:1008BA000130F4007408F606622CF701F80170089A
:1008CA0071040319692C6A2CA72CF501F50A792CF5
:1008DA0001300310F00DF10DFF3E031D6E2C0130A7
:1008EA00F4007408F507792CF11F7C2C7D2C6D2CF3
:1008FA007F2C7F2C01300310F70DF80DFF3E031DEE
:10090A00802C71087302031D8C2C70087202031C60
:10091A008F2C902C982C7008F2027108031CF30398
:10092A00F3027714982C01300310F10CF00CFF3EFF
:10093A00031D992C0130F502031DA42CA52C7F2C34
:10094A00A72CA72C76080319AB2CAC2CB22CF709D0
:10095A00F809F70A0319F80AB22C7808F10077089F
:10096A00F000B72C0800F200831203130811720872
:10097A00F00004300310F00CFF3E031DBF2C70087A
:10098A00F10004300310F10DFF3E031DC72C0808C7
:10099A000F3971048800881172030319D52CD62CDB
:1009AA00DD2C02307206031DDB2CDC2CE72CDD2C3F
:1009BA000330F1009730F000F00BE12CF10BE12C41
:1009CA00E62CEC2C0D30F000F00BE92CEC2C831209
:1009DA0003138815F0307205F00020307006031DED
:1009EA00F72CF82C162D08117208F00004300310A9
:1009FA00F00CFF3E031DFC2C7008F10004300310BC
:100A0A00F10DFF3E031D042D08080F3971048800FB
:100A1A0088110D30F000F00B102D83120313881586
:100A2A00162D08117208F00004300310F00DFF3E75
:100A3A00031D1A2D08080F397004880088117203E3
:100A4A000319282D292D302D02307206031D2E2D53
:100A5A002F2D3A2D302D0330F1009730F000F00B96
:100A6A00342DF10B342D392D3F2D0D30F000F00BC4
:100A7A003C2D3F2D83120313881508003330840060
:100A8A00463083120313AF000408B0001130B100DE
:100A9A002F08840083130008B200AF0A30088400CC
:100AAA0032088000B00AB10B4D2DC4010A128A1116
:100ABA009B230A128A110A128A11AB220A128A117C
:100ACA00662D0A128A11DA230A128A118312031373
:100ADA00AF002F08C500DE2D0A128A11A4220A12BD
:100AEA008A1183120313C401C40A662DF601333036
:100AFA00AF002F08F70000300A128A1132230A12B7
:100B0A008A110A128A11A0220A128A110230831249
:100B1A000313AF002F08C400662D45080319962D4C
:100B2A00972D662D0330AF002F08C400662D662D61
:100B3A004508031DA12DA22D662D0A30AF002F08EE
:100B4A00C400662D662D0A128A119D220A128A1184
:100B5A0083120313AF0045080A128A11C6260A1225
:100B6A008A11831203132F06031DBC2DBD2D662D7A
:100B7A001430AF002F08C400662D662D0A128A11A0
:100B8A00A4220A128A11F6013F3083120313AF001E
:100B9A002F08F70000300A128A1132230A128A112A
:100BAA00153083120313AF002F08C400662D662D7B
:100BBA00662D4408AF00B0013008003A0319E62D4B
:100BCA00662D2F08003A0319712D013A03197B2D5E
:100BDA00033A0319922D013A03199D2D093A031973
:100BEA00A82D1E3A0319C32D013A0319662D662D45
:100BFA00662D662D0A128A11002883120313AB0090
:100C0A005B08031D092E0A2EC12E200803190E2E79
:100C1A000F2EC12E30302002031C142E152E652EE5
:100C2A003A30200203181A2E1B2E652E2B08840038
:100C3A0083130008F000840A0008F1000A30F20069
:100C4A000030F3000A128A110A230A128A11831247
:100C5A00031320087007F90071080318710AFA00D3
:100C6A007908D03EA7007A080318013EFF3EA80083
:100C7A00A901AA012508F9002608FA00FB01FC01CE
:100C8A007C08803AFF002A08803A7F02031D572E0B
:100C9A0029087B02031D572E28087A02031D572EA6
:100CAA0027087902031C5A2E5B2E652E2B08840016
:100CBA00270883138000840A28088000652E652E81
:100CCA0020082106031D6A2E6B2EA52E0A30F0007D
:100CDA000030F1002B08840083130008F200840A14
:100CEA000008F3000A128A1147240A128A11831291
:100CFA00031324087102031D842E23087002031CA7
:100D0A00872E882EA52E0A30F0000030F1002B081D
:100D1A00840083130008F200840A0008F3000A1210
:100D2A008A1147240A128A11831203132B0884009A
:100D3A00700883138000840A71088000A52EA52EEE
:100D4A0020082206031DAA2EAB2EC12E2B088400D2
:100D5A0083130008F900840A0008FA00F909FA095D
:100D6A00F90A0319FA0A2B08840079088000840A10
:100D7A007A088000C12EC12E2008F9007908DB000C
:100D8A000800FD00AF2F0A128A11A4220A128A1142
:100D9A00F6014A3083120313AC002C08F700003026
:100DAA000A128A1132230A128A1107308312031394
:100DBA00AC002C08D900DC01DD01DA01DA0AE22FE5
:100DCA007D08AC002C08A0002130AD002D08A10040
:100DDA002D30AE002E08A2000030A300A4000F3070
:100DEA00A5002730A6005C300A128A1102260A12D0
:100DFA008A1123307D06031D032F042F0A2F0A3080
:100E0A0083120313AC002C08DA0030307D02031C75
:100E1A000F2F102FE22F3A307D020318152F162FAD
:100E2A00E22F023083120313AC002C08DA00E22FFF
:100E3A00E22F0B3059020318232F242F392F590878
:100E4A00AC002C08F6005230AD002D08F700003037
:100E5A000A128A1132230A128A11013083120313E9
:100E6A00AC002C08D907392F0330AC002C08DA0063
:100E7A00E22F7D08031D422F432FE22FDA01DA0AFF
:100E8A00E22FE22FB5305C06043003195D06031D1C
:100E9A004F2F502F552F6430AC002C08DA00E22F68
:100EAA00C830AC002C08DA00E22FE22FF60111302C
:100EBA00AC002C08F70001300A128A1132230A12F8
:100ECA008A11653083120313AC002C08DA00E22F72
:100EDA007D080319712F722FE22F6630AC002C089F
:100EEA00DA00E22FE22F7D08031D7C2F7D2FE22FEF
:100EFA006730AC002C08DA00E22FE22FE22FF6016D
:100F0A002230AC002C08F70001300A128A11322371
:100F1A000A128A11C93083120313AC002C08DA00B2
:100F2A00E22F7D0803199A2F9B2FE22FCA30AC00BB
:100F3A002C08DA00E22FE22F7D08031DA52FA62F29
:100F4A00E22FCB30AC002C08DA00E22FE22FDA01D4
:100F5A00E22FE22F831203135A08AC00AD012D08C9
:100F6A00003A0319B92FE22F2C08003A0319C82EA8
:100F7A00013A0319E52E033A03191E2F013A031900
:100F8A003E2F093A0319472F6E3A03195B2F013A8C
:100F9A0003196D2F033A0319782F013A0319E22F27
:100FAA00AF3A0319842F013A0319962F033A03190A
:100FBA00A12F013A0319AC2FE22F831203135A0807
:100FCA00E62F080083135730FD000230FE00BC30C4
:100FDA00FF00463084000A128A11E4220A128A119A
:100FEA00D701D801D901DA01DB01DC01DD01830176
:060FFA000A128A11432DCA
:04400E00D4E0FFFFFC
:00000001FF
